{
  "contractName": "MedicalConsensus",
  "abi": [
    {
      "inputs": [],
      "stateMutability": "nonpayable",
      "type": "constructor"
    },
    {
      "anonymous": false,
      "inputs": [
        {
          "indexed": true,
          "internalType": "address",
          "name": "patient",
          "type": "address"
        },
        {
          "indexed": true,
          "internalType": "address",
          "name": "professionnel",
          "type": "address"
        }
      ],
      "name": "AccesAutoriseEvent",
      "type": "event"
    },
    {
      "anonymous": false,
      "inputs": [
        {
          "indexed": true,
          "internalType": "uint256",
          "name": "blocId",
          "type": "uint256"
        }
      ],
      "name": "BlocValide",
      "type": "event"
    },
    {
      "anonymous": false,
      "inputs": [
        {
          "indexed": true,
          "internalType": "uint256",
          "name": "idConsultation",
          "type": "uint256"
        }
      ],
      "name": "FormatFHIRValide",
      "type": "event"
    },
    {
      "anonymous": false,
      "inputs": [
        {
          "indexed": true,
          "internalType": "uint256",
          "name": "idConsultation",
          "type": "uint256"
        }
      ],
      "name": "PaiementValide",
      "type": "event"
    },
    {
      "inputs": [
        {
          "internalType": "address",
          "name": "",
          "type": "address"
        }
      ],
      "name": "accesTemporaire",
      "outputs": [
        {
          "internalType": "address",
          "name": "professionnel",
          "type": "address"
        },
        {
          "internalType": "uint256",
          "name": "expiration",
          "type": "uint256"
        }
      ],
      "stateMutability": "view",
      "type": "function",
      "constant": true
    },
    {
      "inputs": [
        {
          "internalType": "uint256",
          "name": "",
          "type": "uint256"
        }
      ],
      "name": "donneesValideFHIR",
      "outputs": [
        {
          "internalType": "bool",
          "name": "",
          "type": "bool"
        }
      ],
      "stateMutability": "view",
      "type": "function",
      "constant": true
    },
    {
      "inputs": [],
      "name": "owner",
      "outputs": [
        {
          "internalType": "address",
          "name": "",
          "type": "address"
        }
      ],
      "stateMutability": "view",
      "type": "function",
      "constant": true
    },
    {
      "inputs": [
        {
          "internalType": "uint256",
          "name": "",
          "type": "uint256"
        }
      ],
      "name": "paiements",
      "outputs": [
        {
          "internalType": "address",
          "name": "patient",
          "type": "address"
        },
        {
          "internalType": "bool",
          "name": "paye",
          "type": "bool"
        }
      ],
      "stateMutability": "view",
      "type": "function",
      "constant": true
    },
    {
      "inputs": [],
      "name": "quorumTechnique",
      "outputs": [
        {
          "internalType": "uint256",
          "name": "",
          "type": "uint256"
        }
      ],
      "stateMutability": "view",
      "type": "function",
      "constant": true
    },
    {
      "inputs": [
        {
          "internalType": "uint256",
          "name": "",
          "type": "uint256"
        }
      ],
      "name": "validations",
      "outputs": [
        {
          "internalType": "bool",
          "name": "approuve",
          "type": "bool"
        }
      ],
      "stateMutability": "view",
      "type": "function",
      "constant": true
    },
    {
      "inputs": [
        {
          "internalType": "uint256",
          "name": "blocId",
          "type": "uint256"
        }
      ],
      "name": "voteTechnique",
      "outputs": [],
      "stateMutability": "nonpayable",
      "type": "function"
    },
    {
      "inputs": [
        {
          "internalType": "address",
          "name": "professionnel",
          "type": "address"
        },
        {
          "internalType": "uint256",
          "name": "dureeMinutes",
          "type": "uint256"
        }
      ],
      "name": "autoriserAcces",
      "outputs": [],
      "stateMutability": "nonpayable",
      "type": "function"
    },
    {
      "inputs": [
        {
          "internalType": "address",
          "name": "patient",
          "type": "address"
        },
        {
          "internalType": "address",
          "name": "professionnel",
          "type": "address"
        }
      ],
      "name": "verifierAcces",
      "outputs": [
        {
          "internalType": "bool",
          "name": "",
          "type": "bool"
        }
      ],
      "stateMutability": "view",
      "type": "function",
      "constant": true
    },
    {
      "inputs": [
        {
          "internalType": "uint256",
          "name": "idConsultation",
          "type": "uint256"
        }
      ],
      "name": "marquerPaiement",
      "outputs": [],
      "stateMutability": "nonpayable",
      "type": "function"
    },
    {
      "inputs": [
        {
          "internalType": "uint256",
          "name": "idConsultation",
          "type": "uint256"
        }
      ],
      "name": "estPaiementValide",
      "outputs": [
        {
          "internalType": "bool",
          "name": "",
          "type": "bool"
        }
      ],
      "stateMutability": "view",
      "type": "function",
      "constant": true
    },
    {
      "inputs": [
        {
          "internalType": "uint256",
          "name": "idConsultation",
          "type": "uint256"
        },
        {
          "internalType": "bool",
          "name": "estValide",
          "type": "bool"
        }
      ],
      "name": "validerFormatFHIR",
      "outputs": [],
      "stateMutability": "nonpayable",
      "type": "function"
    },
    {
      "inputs": [
        {
          "internalType": "uint256",
          "name": "idConsultation",
          "type": "uint256"
        }
      ],
      "name": "estDonneeFHIRValide",
      "outputs": [
        {
          "internalType": "bool",
          "name": "",
          "type": "bool"
        }
      ],
      "stateMutability": "view",
      "type": "function",
      "constant": true
    }
  ],
  "bytecode": "0x6080604052600260005534801561001557600080fd5b5033600160006101000a81548173ffffffffffffffffffffffffffffffffffffffff021916908373ffffffffffffffffffffffffffffffffffffffff160217905550610e98806100666000396000f3fe608060405234801561001057600080fd5b50600436106100cf5760003560e01c806391e5954c1161008c578063b6ba97e411610066578063b6ba97e41461024c578063bf8e8d8114610268578063d037a7a314610286578063ed230a2d146102b6576100cf565b806391e5954c146101ba57806398bfeb1d146101eb578063ac63dc3a1461021b576100cf565b806302d697f3146100d457806326257959146100f05780636cbe3f63146101205780637264f06a146101505780637e62eed6146101805780638da5cb5b1461019c575b600080fd5b6100ee60048036038101906100e991906109dd565b6102d2565b005b61010a60048036038101906101059190610a68565b6103ad565b6040516101179190610ac3565b60405180910390f35b61013a600480360381019061013591906109dd565b6104a8565b6040516101479190610ac3565b60405180910390f35b61016a600480360381019061016591906109dd565b6104d5565b6040516101779190610ac3565b60405180910390f35b61019a60048036038101906101959190610ade565b6104f5565b005b6101a4610628565b6040516101b19190610b2d565b60405180910390f35b6101d460048036038101906101cf91906109dd565b61064e565b6040516101e2929190610b48565b60405180910390f35b610205600480360381019061020091906109dd565b61069f565b6040516102129190610ac3565b60405180910390f35b61023560048036038101906102309190610b71565b6106c9565b604051610243929190610bad565b60405180910390f35b610266600480360381019061026191906109dd565b61070d565b005b61027061090e565b60405161027d9190610bd6565b60405180910390f35b6102a0600480360381019061029b91906109dd565b610914565b6040516102ad9190610ac3565b60405180910390f35b6102d060048036038101906102cb9190610c1d565b61093f565b005b60405180604001604052803373ffffffffffffffffffffffffffffffffffffffff168152602001600115158152506004600083815260200190815260200160002060008201518160000160006101000a81548173ffffffffffffffffffffffffffffffffffffffff021916908373ffffffffffffffffffffffffffffffffffffffff16021790555060208201518160000160146101000a81548160ff021916908315150217905550905050807fd12ad2c589cf03c6d7afe2495b4b251fcc1ca21e6afedb22d2f0e5a057dcf97560405160405180910390a250565b600080600360008573ffffffffffffffffffffffffffffffffffffffff1673ffffffffffffffffffffffffffffffffffffffff1681526020019081526020016000206040518060400160405290816000820160009054906101000a900473ffffffffffffffffffffffffffffffffffffffff1673ffffffffffffffffffffffffffffffffffffffff1673ffffffffffffffffffffffffffffffffffffffff16815260200160018201548152505090508273ffffffffffffffffffffffffffffffffffffffff16816000015173ffffffffffffffffffffffffffffffffffffffff1614801561049f575080602001514211155b91505092915050565b60006004600083815260200190815260200160002060000160149054906101000a900460ff169050919050565b60056020528060005260406000206000915054906101000a900460ff1681565b60405180604001604052808373ffffffffffffffffffffffffffffffffffffffff168152602001603c836105299190610c8c565b426105349190610cce565b815250600360003373ffffffffffffffffffffffffffffffffffffffff1673ffffffffffffffffffffffffffffffffffffffff16815260200190815260200160002060008201518160000160006101000a81548173ffffffffffffffffffffffffffffffffffffffff021916908373ffffffffffffffffffffffffffffffffffffffff160217905550602082015181600101559050508173ffffffffffffffffffffffffffffffffffffffff163373ffffffffffffffffffffffffffffffffffffffff167fc83b5fa42ab54711327adc2f214877b66c4edb0169e7517e25c254f7684ecc4060405160405180910390a35050565b600160009054906101000a900473ffffffffffffffffffffffffffffffffffffffff1681565b60046020528060005260406000206000915090508060000160009054906101000a900473ffffffffffffffffffffffffffffffffffffffff16908060000160149054906101000a900460ff16905082565b60006005600083815260200190815260200160002060009054906101000a900460ff169050919050565b60036020528060005260406000206000915090508060000160009054906101000a900473ffffffffffffffffffffffffffffffffffffffff16908060010154905082565b60006002600083815260200190815260200160002090508060010160009054906101000a900460ff1615610776576040517f08c379a000000000000000000000000000000000000000000000000000000000815260040161076d90610d5f565b60405180910390fd5b60005b8160000180549050811015610849573373ffffffffffffffffffffffffffffffffffffffff168260000182815481106107b5576107b4610d7f565b5b9060005260206000200160009054906101000a900473ffffffffffffffffffffffffffffffffffffffff1673ffffffffffffffffffffffffffffffffffffffff1603610836576040517f08c379a000000000000000000000000000000000000000000000000000000000815260040161082d90610dfa565b60405180910390fd5b808061084190610e1a565b915050610779565b5080600001339080600181540180825580915050600190039060005260206000200160009091909190916101000a81548173ffffffffffffffffffffffffffffffffffffffff021916908373ffffffffffffffffffffffffffffffffffffffff16021790555060005481600001805490501061090a5760018160010160006101000a81548160ff021916908315150217905550817f10bfbf8d0547b8ae3832ebaf1f4ea75580cf22dd0a88caab25ad07a8e918c45560405160405180910390a25b5050565b60005481565b60026020528060005260406000206000915090508060010160009054906101000a900460ff16905081565b806005600084815260200190815260200160002060006101000a81548160ff021916908315150217905550801561099e57817fdf8622c3de721ed962a961681137aa343b4db96968454e49e20d476efab02b8b60405160405180910390a25b5050565b600080fd5b6000819050919050565b6109ba816109a7565b81146109c557600080fd5b50565b6000813590506109d7816109b1565b92915050565b6000602082840312156109f3576109f26109a2565b5b6000610a01848285016109c8565b91505092915050565b600073ffffffffffffffffffffffffffffffffffffffff82169050919050565b6000610a3582610a0a565b9050919050565b610a4581610a2a565b8114610a5057600080fd5b50565b600081359050610a6281610a3c565b92915050565b60008060408385031215610a7f57610a7e6109a2565b5b6000610a8d85828601610a53565b9250506020610a9e85828601610a53565b9150509250929050565b60008115159050919050565b610abd81610aa8565b82525050565b6000602082019050610ad86000830184610ab4565b92915050565b60008060408385031215610af557610af46109a2565b5b6000610b0385828601610a53565b9250506020610b14858286016109c8565b9150509250929050565b610b2781610a2a565b82525050565b6000602082019050610b426000830184610b1e565b92915050565b6000604082019050610b5d6000830185610b1e565b610b6a6020830184610ab4565b9392505050565b600060208284031215610b8757610b866109a2565b5b6000610b9584828501610a53565b91505092915050565b610ba7816109a7565b82525050565b6000604082019050610bc26000830185610b1e565b610bcf6020830184610b9e565b9392505050565b6000602082019050610beb6000830184610b9e565b92915050565b610bfa81610aa8565b8114610c0557600080fd5b50565b600081359050610c1781610bf1565b92915050565b60008060408385031215610c3457610c336109a2565b5b6000610c42858286016109c8565b9250506020610c5385828601610c08565b9150509250929050565b7f4e487b7100000000000000000000000000000000000000000000000000000000600052601160045260246000fd5b6000610c97826109a7565b9150610ca2836109a7565b9250828202610cb0816109a7565b91508282048414831517610cc757610cc6610c5d565b5b5092915050565b6000610cd9826109a7565b9150610ce4836109a7565b9250828201905080821115610cfc57610cfb610c5d565b5b92915050565b600082825260208201905092915050565b7f426c6f632064656a6120617070726f7576650000000000000000000000000000600082015250565b6000610d49601283610d02565b9150610d5482610d13565b602082019050919050565b60006020820190508181036000830152610d7881610d3c565b9050919050565b7f4e487b7100000000000000000000000000000000000000000000000000000000600052603260045260246000fd5b7f44656a6120766f74650000000000000000000000000000000000000000000000600082015250565b6000610de4600983610d02565b9150610def82610dae565b602082019050919050565b60006020820190508181036000830152610e1381610dd7565b9050919050565b6000610e25826109a7565b91507fffffffffffffffffffffffffffffffffffffffffffffffffffffffffffffffff8203610e5757610e56610c5d565b5b60018201905091905056fea26469706673582212205f35f42ba5a30459053bca0081a4cbe0f586af32acbb3d1f50864f9347fc474064736f6c63430008130033",
  "immutableReferences": {},
  "source": "// SPDX-License-Identifier: MIT\r\npragma solidity ^0.8.19;\r\n\r\ncontract MedicalConsensus {\r\n    uint public quorumTechnique = 2;\r\n    address public owner;\r\n\r\n    constructor() {\r\n        owner = msg.sender;\r\n    }\r\n\r\n    struct BlocValidation {\r\n        address[] validateurs;\r\n        bool approuve;\r\n    }\r\n\r\n    struct AccesAutorise {\r\n        address professionnel;\r\n        uint expiration;\r\n    }\r\n\r\n    struct Paiement {\r\n        address patient;\r\n        bool paye;\r\n    }\r\n\r\n    mapping(uint => BlocValidation) public validations;\r\n    mapping(address => AccesAutorise) public accesTemporaire;\r\n    mapping(uint => Paiement) public paiements;\r\n    mapping(uint => bool) public donneesValideFHIR;\r\n\r\n    event BlocValide(uint indexed blocId);\r\n    event AccesAutoriseEvent(address indexed patient, address indexed professionnel);\r\n    event PaiementValide(uint indexed idConsultation);\r\n    event FormatFHIRValide(uint indexed idConsultation);\r\n\r\n    //  1. Validation technique\r\n    function voteTechnique(uint blocId) public {\r\n        BlocValidation storage v = validations[blocId];\r\n        require(!v.approuve, \"Bloc deja approuve\");\r\n\r\n        for (uint i = 0; i < v.validateurs.length; i++) {\r\n            require(v.validateurs[i] != msg.sender, \"Deja vote\");\r\n        }\r\n\r\n        v.validateurs.push(msg.sender);\r\n\r\n        if (v.validateurs.length >= quorumTechnique) {\r\n            v.approuve = true;\r\n            emit BlocValide(blocId);\r\n        }\r\n    }\r\n\r\n    //  2. Autorisation d'accs\r\n    function autoriserAcces(address professionnel, uint dureeMinutes) public {\r\n        accesTemporaire[msg.sender] = AccesAutorise(professionnel, block.timestamp + dureeMinutes * 1 minutes);\r\n        emit AccesAutoriseEvent(msg.sender, professionnel);\r\n    }\r\n\r\n    function verifierAcces(address patient, address professionnel) public view returns (bool) {\r\n        AccesAutorise memory a = accesTemporaire[patient];\r\n        return (a.professionnel == professionnel && block.timestamp <= a.expiration);\r\n    }\r\n\r\n    //  3. Paiement\r\n    function marquerPaiement(uint idConsultation) public {\r\n        paiements[idConsultation] = Paiement(msg.sender, true);\r\n        emit PaiementValide(idConsultation);\r\n    }\r\n\r\n    function estPaiementValide(uint idConsultation) public view returns (bool) {\r\n        return paiements[idConsultation].paye;\r\n    }\r\n\r\n    //  4. Validation FHIR\r\n    function validerFormatFHIR(uint idConsultation, bool estValide) public {\r\n        donneesValideFHIR[idConsultation] = estValide;\r\n        if (estValide) {\r\n            emit FormatFHIRValide(idConsultation);\r\n        }\r\n    }\r\n\r\n    function estDonneeFHIRValide(uint idConsultation) public view returns (bool) {\r\n        return donneesValideFHIR[idConsultation];\r\n    }\r\n}\r\n",
  "sourcePath": "C:\\Users\\ADMIN\\Documents\\projet-reactjs\\Projet-soutenance-FullStack\\backend-nodejs\\thruffle-consansus\\contracts\\MedicalConsensus.sol",
  "compiler": {
    "name": "solc",
    "version": "0.8.19+commit.7dd6d404.Emscripten.clang"
  },
  "schemaVersion": "3.4.16",
  "updatedAt": "2025-07-06T11:50:00.639Z",
  "networkType": "ethereum",
  "devdoc": {
    "kind": "dev",
    "methods": {},
    "version": 1
  },
  "userdoc": {
    "kind": "user",
    "methods": {},
    "version": 1
  }
}