{
  "contractName": "MedicalConsensus",
  "abi": [
    {
      "inputs": [],
      "stateMutability": "nonpayable",
      "type": "constructor"
    },
    {
      "anonymous": false,
      "inputs": [
        {
          "indexed": true,
          "internalType": "address",
          "name": "patient",
          "type": "address"
        },
        {
          "indexed": true,
          "internalType": "address",
          "name": "professionnel",
          "type": "address"
        }
      ],
      "name": "AccesAutoriseEvent",
      "type": "event"
    },
    {
      "anonymous": false,
      "inputs": [
        {
          "indexed": false,
          "internalType": "uint256",
          "name": "blocId",
          "type": "uint256"
        }
      ],
      "name": "BlocValide",
      "type": "event"
    },
    {
      "anonymous": false,
      "inputs": [
        {
          "indexed": false,
          "internalType": "uint256",
          "name": "idConsultation",
          "type": "uint256"
        },
        {
          "indexed": false,
          "internalType": "string",
          "name": "hashConsultation",
          "type": "string"
        }
      ],
      "name": "ConsultationAjoutee",
      "type": "event"
    },
    {
      "anonymous": false,
      "inputs": [
        {
          "indexed": true,
          "internalType": "uint256",
          "name": "idConsultation",
          "type": "uint256"
        },
        {
          "indexed": false,
          "internalType": "string",
          "name": "ancienHash",
          "type": "string"
        },
        {
          "indexed": false,
          "internalType": "string",
          "name": "nouveauHash",
          "type": "string"
        },
        {
          "indexed": false,
          "internalType": "string",
          "name": "motif",
          "type": "string"
        }
      ],
      "name": "ConsultationModifiee",
      "type": "event"
    },
    {
      "anonymous": false,
      "inputs": [
        {
          "indexed": true,
          "internalType": "uint256",
          "name": "idConsultation",
          "type": "uint256"
        },
        {
          "indexed": false,
          "internalType": "string",
          "name": "raison",
          "type": "string"
        }
      ],
      "name": "ConsultationSupprimee",
      "type": "event"
    },
    {
      "anonymous": false,
      "inputs": [
        {
          "indexed": false,
          "internalType": "uint256",
          "name": "idConsultation",
          "type": "uint256"
        }
      ],
      "name": "FormatFHIRValide",
      "type": "event"
    },
    {
      "anonymous": false,
      "inputs": [
        {
          "indexed": false,
          "internalType": "uint256",
          "name": "idConsultation",
          "type": "uint256"
        }
      ],
      "name": "PaiementValide",
      "type": "event"
    },
    {
      "inputs": [
        {
          "internalType": "address",
          "name": "",
          "type": "address"
        }
      ],
      "name": "accesTemporaire",
      "outputs": [
        {
          "internalType": "address",
          "name": "professionnel",
          "type": "address"
        },
        {
          "internalType": "uint256",
          "name": "expiration",
          "type": "uint256"
        }
      ],
      "stateMutability": "view",
      "type": "function",
      "constant": true
    },
    {
      "inputs": [
        {
          "internalType": "uint256",
          "name": "",
          "type": "uint256"
        }
      ],
      "name": "donneesValideFHIR",
      "outputs": [
        {
          "internalType": "bool",
          "name": "",
          "type": "bool"
        }
      ],
      "stateMutability": "view",
      "type": "function",
      "constant": true
    },
    {
      "inputs": [
        {
          "internalType": "uint256",
          "name": "",
          "type": "uint256"
        }
      ],
      "name": "hashConsultations",
      "outputs": [
        {
          "internalType": "string",
          "name": "",
          "type": "string"
        }
      ],
      "stateMutability": "view",
      "type": "function",
      "constant": true
    },
    {
      "inputs": [],
      "name": "owner",
      "outputs": [
        {
          "internalType": "address",
          "name": "",
          "type": "address"
        }
      ],
      "stateMutability": "view",
      "type": "function",
      "constant": true
    },
    {
      "inputs": [
        {
          "internalType": "uint256",
          "name": "",
          "type": "uint256"
        }
      ],
      "name": "paiements",
      "outputs": [
        {
          "internalType": "address",
          "name": "patient",
          "type": "address"
        },
        {
          "internalType": "bool",
          "name": "paye",
          "type": "bool"
        }
      ],
      "stateMutability": "view",
      "type": "function",
      "constant": true
    },
    {
      "inputs": [],
      "name": "quorumTechnique",
      "outputs": [
        {
          "internalType": "uint256",
          "name": "",
          "type": "uint256"
        }
      ],
      "stateMutability": "view",
      "type": "function",
      "constant": true
    },
    {
      "inputs": [
        {
          "internalType": "uint256",
          "name": "",
          "type": "uint256"
        }
      ],
      "name": "validations",
      "outputs": [
        {
          "internalType": "uint256",
          "name": "blocId",
          "type": "uint256"
        },
        {
          "internalType": "bool",
          "name": "approuve",
          "type": "bool"
        }
      ],
      "stateMutability": "view",
      "type": "function",
      "constant": true
    },
    {
      "inputs": [
        {
          "internalType": "uint256",
          "name": "blocId",
          "type": "uint256"
        }
      ],
      "name": "voteTechnique",
      "outputs": [],
      "stateMutability": "nonpayable",
      "type": "function"
    },
    {
      "inputs": [
        {
          "internalType": "address",
          "name": "professionnel",
          "type": "address"
        },
        {
          "internalType": "uint256",
          "name": "dureeMinutes",
          "type": "uint256"
        }
      ],
      "name": "autoriserAcces",
      "outputs": [],
      "stateMutability": "nonpayable",
      "type": "function"
    },
    {
      "inputs": [
        {
          "internalType": "address",
          "name": "patient",
          "type": "address"
        },
        {
          "internalType": "address",
          "name": "professionnel",
          "type": "address"
        }
      ],
      "name": "verifierAcces",
      "outputs": [
        {
          "internalType": "bool",
          "name": "",
          "type": "bool"
        }
      ],
      "stateMutability": "view",
      "type": "function",
      "constant": true
    },
    {
      "inputs": [
        {
          "internalType": "uint256",
          "name": "idConsultation",
          "type": "uint256"
        }
      ],
      "name": "marquerPaiement",
      "outputs": [],
      "stateMutability": "nonpayable",
      "type": "function"
    },
    {
      "inputs": [
        {
          "internalType": "uint256",
          "name": "idConsultation",
          "type": "uint256"
        }
      ],
      "name": "estPaiementValide",
      "outputs": [
        {
          "internalType": "bool",
          "name": "",
          "type": "bool"
        }
      ],
      "stateMutability": "view",
      "type": "function",
      "constant": true
    },
    {
      "inputs": [
        {
          "internalType": "uint256",
          "name": "idConsultation",
          "type": "uint256"
        },
        {
          "internalType": "bool",
          "name": "estValide",
          "type": "bool"
        }
      ],
      "name": "validerFormatFHIR",
      "outputs": [],
      "stateMutability": "nonpayable",
      "type": "function"
    },
    {
      "inputs": [
        {
          "internalType": "uint256",
          "name": "idConsultation",
          "type": "uint256"
        }
      ],
      "name": "estDonneeFHIRValide",
      "outputs": [
        {
          "internalType": "bool",
          "name": "",
          "type": "bool"
        }
      ],
      "stateMutability": "view",
      "type": "function",
      "constant": true
    },
    {
      "inputs": [
        {
          "internalType": "uint256",
          "name": "idConsultation",
          "type": "uint256"
        },
        {
          "internalType": "string",
          "name": "ancienHash",
          "type": "string"
        },
        {
          "internalType": "string",
          "name": "nouveauHash",
          "type": "string"
        },
        {
          "internalType": "string",
          "name": "motif",
          "type": "string"
        }
      ],
      "name": "enregistrerModification",
      "outputs": [],
      "stateMutability": "nonpayable",
      "type": "function"
    },
    {
      "inputs": [
        {
          "internalType": "uint256",
          "name": "idConsultation",
          "type": "uint256"
        },
        {
          "internalType": "string",
          "name": "raison",
          "type": "string"
        }
      ],
      "name": "enregistrerSuppression",
      "outputs": [],
      "stateMutability": "nonpayable",
      "type": "function"
    },
    {
      "inputs": [
        {
          "internalType": "uint256",
          "name": "idConsultation",
          "type": "uint256"
        },
        {
          "internalType": "string",
          "name": "hashConsultation",
          "type": "string"
        }
      ],
      "name": "ajouterConsultation",
      "outputs": [],
      "stateMutability": "nonpayable",
      "type": "function"
    },
    {
      "inputs": [
        {
          "internalType": "uint256",
          "name": "idConsultation",
          "type": "uint256"
        },
        {
          "internalType": "string",
          "name": "hashConsultation",
          "type": "string"
        },
        {
          "internalType": "address",
          "name": "patient",
          "type": "address"
        },
        {
          "internalType": "address",
          "name": "professionnel",
          "type": "address"
        },
        {
          "internalType": "uint256",
          "name": "blocId",
          "type": "uint256"
        }
      ],
      "name": "traiterConsultationComplete",
      "outputs": [],
      "stateMutability": "nonpayable",
      "type": "function"
    }
  ],
  "bytecode": "0x6080604052600260005534801561001557600080fd5b5033600160006101000a81548173ffffffffffffffffffffffffffffffffffffffff021916908373ffffffffffffffffffffffffffffffffffffffff160217905550611e68806100666000396000f3fe608060405234801561001057600080fd5b50600436106101165760003560e01c806398bfeb1d116100a2578063bf8e8d8111610071578063bf8e8d8114610303578063cf86d90a14610321578063d037a7a31461033d578063ea73c47a1461036e578063ed230a2d1461039e57610116565b806398bfeb1d1461026a5780639e07c3e91461029a578063ac63dc3a146102b6578063b6ba97e4146102e757610116565b80636cbe3f63116100e95780636cbe3f631461019f5780637264f06a146101cf5780637e62eed6146101ff5780638da5cb5b1461021b57806391e5954c1461023957610116565b80630140f7cd1461011b57806302d697f314610137578063262579591461015357806349a12b1f14610183575b600080fd5b61013560048036038101906101309190611306565b6103ba565b005b610151600480360381019061014c919061139d565b610846565b005b61016d600480360381019061016891906113ca565b61092b565b60405161017a9190611425565b60405180910390f35b61019d60048036038101906101989190611440565b610a26565b005b6101b960048036038101906101b4919061139d565b610ae6565b6040516101c69190611425565b60405180910390f35b6101e960048036038101906101e4919061139d565b610b13565b6040516101f69190611425565b60405180910390f35b6102196004803603810190610214919061149c565b610b33565b005b610223610c66565b60405161023091906114eb565b60405180910390f35b610253600480360381019061024e919061139d565b610c8c565b604051610261929190611506565b60405180910390f35b610284600480360381019061027f919061139d565b610cdd565b6040516102919190611425565b60405180910390f35b6102b460048036038101906102af9190611440565b610d07565b005b6102d060048036038101906102cb919061152f565b610d43565b6040516102de92919061156b565b60405180910390f35b61030160048036038101906102fc919061139d565b610d87565b005b61030b610f92565b6040516103189190611594565b60405180910390f35b61033b600480360381019061033691906115af565b610f98565b005b6103576004803603810190610352919061139d565b610fda565b60405161036592919061166a565b60405180910390f35b6103886004803603810190610383919061139d565b61100b565b6040516103959190611712565b60405180910390f35b6103b860048036038101906103b39190611760565b6110ab565b005b6000600360008573ffffffffffffffffffffffffffffffffffffffff1673ffffffffffffffffffffffffffffffffffffffff1681526020019081526020016000206040518060400160405290816000820160009054906101000a900473ffffffffffffffffffffffffffffffffffffffff1673ffffffffffffffffffffffffffffffffffffffff1673ffffffffffffffffffffffffffffffffffffffff16815260200160018201548152505090508273ffffffffffffffffffffffffffffffffffffffff16816000015173ffffffffffffffffffffffffffffffffffffffff161480156104ab575080602001514211155b6104ea576040517f08c379a00000000000000000000000000000000000000000000000000000000081526004016104e1906117ec565b60405180910390fd5b60405180604001604052803373ffffffffffffffffffffffffffffffffffffffff168152602001600115158152506004600088815260200190815260200160002060008201518160000160006101000a81548173ffffffffffffffffffffffffffffffffffffffff021916908373ffffffffffffffffffffffffffffffffffffffff16021790555060208201518160000160146101000a81548160ff0219169083151502179055509050507fd12ad2c589cf03c6d7afe2495b4b251fcc1ca21e6afedb22d2f0e5a057dcf975866040516105c49190611594565b60405180910390a160006006600088815260200190815260200160002080546105ec9061183b565b90501461062e576040517f08c379a0000000000000000000000000000000000000000000000000000000008152600401610625906118b8565b60405180910390fd5b8460066000888152602001908152602001600020908161064e9190611a84565b507fd47717c4b17f48b709c7c2f68791445c0a1d1c81cd5017254372c1affd1880f48686604051610680929190611b56565b60405180910390a1600060026000848152602001908152602001600020905060005b8160010180549050811015610772573373ffffffffffffffffffffffffffffffffffffffff168260010182815481106106de576106dd611b86565b5b9060005260206000200160009054906101000a900473ffffffffffffffffffffffffffffffffffffffff1673ffffffffffffffffffffffffffffffffffffffff160361075f576040517f08c379a000000000000000000000000000000000000000000000000000000000815260040161075690611c01565b60405180910390fd5b808061076a90611c50565b9150506106a2565b5080600101339080600181540180825580915050600190039060005260206000200160009091909190916101000a81548173ffffffffffffffffffffffffffffffffffffffff021916908373ffffffffffffffffffffffffffffffffffffffff16021790555060005481600101805490501061083d5760018160020160006101000a81548160ff0219169083151502179055507f10bfbf8d0547b8ae3832ebaf1f4ea75580cf22dd0a88caab25ad07a8e918c455836040516108349190611594565b60405180910390a15b50505050505050565b60405180604001604052803373ffffffffffffffffffffffffffffffffffffffff168152602001600115158152506004600083815260200190815260200160002060008201518160000160006101000a81548173ffffffffffffffffffffffffffffffffffffffff021916908373ffffffffffffffffffffffffffffffffffffffff16021790555060208201518160000160146101000a81548160ff0219169083151502179055509050507fd12ad2c589cf03c6d7afe2495b4b251fcc1ca21e6afedb22d2f0e5a057dcf975816040516109209190611594565b60405180910390a150565b600080600360008573ffffffffffffffffffffffffffffffffffffffff1673ffffffffffffffffffffffffffffffffffffffff1681526020019081526020016000206040518060400160405290816000820160009054906101000a900473ffffffffffffffffffffffffffffffffffffffff1673ffffffffffffffffffffffffffffffffffffffff1673ffffffffffffffffffffffffffffffffffffffff16815260200160018201548152505090508273ffffffffffffffffffffffffffffffffffffffff16816000015173ffffffffffffffffffffffffffffffffffffffff16148015610a1d575080602001514211155b91505092915050565b6000600660008481526020019081526020016000208054610a469061183b565b905014610a88576040517f08c379a0000000000000000000000000000000000000000000000000000000008152600401610a7f90611ce4565b60405180910390fd5b80600660008481526020019081526020016000209081610aa89190611a84565b507fd47717c4b17f48b709c7c2f68791445c0a1d1c81cd5017254372c1affd1880f48282604051610ada929190611b56565b60405180910390a15050565b60006004600083815260200190815260200160002060000160149054906101000a900460ff169050919050565b60056020528060005260406000206000915054906101000a900460ff1681565b60405180604001604052808373ffffffffffffffffffffffffffffffffffffffff168152602001603c83610b679190611d04565b42610b729190611d46565b815250600360003373ffffffffffffffffffffffffffffffffffffffff1673ffffffffffffffffffffffffffffffffffffffff16815260200190815260200160002060008201518160000160006101000a81548173ffffffffffffffffffffffffffffffffffffffff021916908373ffffffffffffffffffffffffffffffffffffffff160217905550602082015181600101559050508173ffffffffffffffffffffffffffffffffffffffff163373ffffffffffffffffffffffffffffffffffffffff167fc83b5fa42ab54711327adc2f214877b66c4edb0169e7517e25c254f7684ecc4060405160405180910390a35050565b600160009054906101000a900473ffffffffffffffffffffffffffffffffffffffff1681565b60046020528060005260406000206000915090508060000160009054906101000a900473ffffffffffffffffffffffffffffffffffffffff16908060000160149054906101000a900460ff16905082565b60006005600083815260200190815260200160002060009054906101000a900460ff169050919050565b817f208cb73b97a36643ffccb5e5db5d8c059fff659bbf0b9ed2c5e98bb055582d7d82604051610d379190611712565b60405180910390a25050565b60036020528060005260406000206000915090508060000160009054906101000a900473ffffffffffffffffffffffffffffffffffffffff16908060010154905082565b60006002600083815260200190815260200160002090508060020160009054906101000a900460ff1615610df0576040517f08c379a0000000000000000000000000000000000000000000000000000000008152600401610de790611dc6565b60405180910390fd5b60005b8160010180549050811015610ec3573373ffffffffffffffffffffffffffffffffffffffff16826001018281548110610e2f57610e2e611b86565b5b9060005260206000200160009054906101000a900473ffffffffffffffffffffffffffffffffffffffff1673ffffffffffffffffffffffffffffffffffffffff1603610eb0576040517f08c379a0000000000000000000000000000000000000000000000000000000008152600401610ea790611c01565b60405180910390fd5b8080610ebb90611c50565b915050610df3565b5080600101339080600181540180825580915050600190039060005260206000200160009091909190916101000a81548173ffffffffffffffffffffffffffffffffffffffff021916908373ffffffffffffffffffffffffffffffffffffffff160217905550600054816001018054905010610f8e5760018160020160006101000a81548160ff0219169083151502179055507f10bfbf8d0547b8ae3832ebaf1f4ea75580cf22dd0a88caab25ad07a8e918c45582604051610f859190611594565b60405180910390a15b5050565b60005481565b837f5de2e57f31b105f8037c963e088653d8262dcca2237d1ea92695bec9e2455f56848484604051610fcc93929190611de6565b60405180910390a250505050565b60026020528060005260406000206000915090508060000154908060020160009054906101000a900460ff16905082565b6006602052806000526040600020600091509050805461102a9061183b565b80601f01602080910402602001604051908101604052809291908181526020018280546110569061183b565b80156110a35780601f10611078576101008083540402835291602001916110a3565b820191906000526020600020905b81548152906001019060200180831161108657829003601f168201915b505050505081565b806005600084815260200190815260200160002060006101000a81548160ff0219169083151502179055508015611114577fdf8622c3de721ed962a961681137aa343b4db96968454e49e20d476efab02b8b8260405161110b9190611594565b60405180910390a15b5050565b6000604051905090565b600080fd5b600080fd5b6000819050919050565b61113f8161112c565b811461114a57600080fd5b50565b60008135905061115c81611136565b92915050565b600080fd5b600080fd5b6000601f19601f8301169050919050565b7f4e487b7100000000000000000000000000000000000000000000000000000000600052604160045260246000fd5b6111b58261116c565b810181811067ffffffffffffffff821117156111d4576111d361117d565b5b80604052505050565b60006111e7611118565b90506111f382826111ac565b919050565b600067ffffffffffffffff8211156112135761121261117d565b5b61121c8261116c565b9050602081019050919050565b82818337600083830152505050565b600061124b611246846111f8565b6111dd565b90508281526020810184848401111561126757611266611167565b5b611272848285611229565b509392505050565b600082601f83011261128f5761128e611162565b5b813561129f848260208601611238565b91505092915050565b600073ffffffffffffffffffffffffffffffffffffffff82169050919050565b60006112d3826112a8565b9050919050565b6112e3816112c8565b81146112ee57600080fd5b50565b600081359050611300816112da565b92915050565b600080600080600060a0868803121561132257611321611122565b5b60006113308882890161114d565b955050602086013567ffffffffffffffff81111561135157611350611127565b5b61135d8882890161127a565b945050604061136e888289016112f1565b935050606061137f888289016112f1565b92505060806113908882890161114d565b9150509295509295909350565b6000602082840312156113b3576113b2611122565b5b60006113c18482850161114d565b91505092915050565b600080604083850312156113e1576113e0611122565b5b60006113ef858286016112f1565b9250506020611400858286016112f1565b9150509250929050565b60008115159050919050565b61141f8161140a565b82525050565b600060208201905061143a6000830184611416565b92915050565b6000806040838503121561145757611456611122565b5b60006114658582860161114d565b925050602083013567ffffffffffffffff81111561148657611485611127565b5b6114928582860161127a565b9150509250929050565b600080604083850312156114b3576114b2611122565b5b60006114c1858286016112f1565b92505060206114d28582860161114d565b9150509250929050565b6114e5816112c8565b82525050565b600060208201905061150060008301846114dc565b92915050565b600060408201905061151b60008301856114dc565b6115286020830184611416565b9392505050565b60006020828403121561154557611544611122565b5b6000611553848285016112f1565b91505092915050565b6115658161112c565b82525050565b600060408201905061158060008301856114dc565b61158d602083018461155c565b9392505050565b60006020820190506115a9600083018461155c565b92915050565b600080600080608085870312156115c9576115c8611122565b5b60006115d78782880161114d565b945050602085013567ffffffffffffffff8111156115f8576115f7611127565b5b6116048782880161127a565b935050604085013567ffffffffffffffff81111561162557611624611127565b5b6116318782880161127a565b925050606085013567ffffffffffffffff81111561165257611651611127565b5b61165e8782880161127a565b91505092959194509250565b600060408201905061167f600083018561155c565b61168c6020830184611416565b9392505050565b600081519050919050565b600082825260208201905092915050565b60005b838110156116cd5780820151818401526020810190506116b2565b60008484015250505050565b60006116e482611693565b6116ee818561169e565b93506116fe8185602086016116af565b6117078161116c565b840191505092915050565b6000602082019050818103600083015261172c81846116d9565b905092915050565b61173d8161140a565b811461174857600080fd5b50565b60008135905061175a81611734565b92915050565b6000806040838503121561177757611776611122565b5b60006117858582860161114d565b92505060206117968582860161174b565b9150509250929050565b7f4163636573206e6f6e206175746f726973650000000000000000000000000000600082015250565b60006117d660128361169e565b91506117e1826117a0565b602082019050919050565b60006020820190508181036000830152611805816117c9565b9050919050565b7f4e487b7100000000000000000000000000000000000000000000000000000000600052602260045260246000fd5b6000600282049050600182168061185357607f821691505b6020821081036118665761186561180c565b5b50919050565b7f436f6e73756c746174696f6e2064656a6120616a6f7574656500000000000000600082015250565b60006118a260198361169e565b91506118ad8261186c565b602082019050919050565b600060208201905081810360008301526118d181611895565b9050919050565b60008190508160005260206000209050919050565b60006020601f8301049050919050565b600082821b905092915050565b60006008830261193a7fffffffffffffffffffffffffffffffffffffffffffffffffffffffffffffffff826118fd565b61194486836118fd565b95508019841693508086168417925050509392505050565b6000819050919050565b600061198161197c6119778461112c565b61195c565b61112c565b9050919050565b6000819050919050565b61199b83611966565b6119af6119a782611988565b84845461190a565b825550505050565b600090565b6119c46119b7565b6119cf818484611992565b505050565b5b818110156119f3576119e86000826119bc565b6001810190506119d5565b5050565b601f821115611a3857611a09816118d8565b611a12846118ed565b81016020851015611a21578190505b611a35611a2d856118ed565b8301826119d4565b50505b505050565b600082821c905092915050565b6000611a5b60001984600802611a3d565b1980831691505092915050565b6000611a748383611a4a565b9150826002028217905092915050565b611a8d82611693565b67ffffffffffffffff811115611aa657611aa561117d565b5b611ab0825461183b565b611abb8282856119f7565b600060209050601f831160018114611aee5760008415611adc578287015190505b611ae68582611a68565b865550611b4e565b601f198416611afc866118d8565b60005b82811015611b2457848901518255600182019150602085019450602081019050611aff565b86831015611b415784890151611b3d601f891682611a4a565b8355505b6001600288020188555050505b505050505050565b6000604082019050611b6b600083018561155c565b8181036020830152611b7d81846116d9565b90509392505050565b7f4e487b7100000000000000000000000000000000000000000000000000000000600052603260045260246000fd5b7f44656a6120766f74650000000000000000000000000000000000000000000000600082015250565b6000611beb60098361169e565b9150611bf682611bb5565b602082019050919050565b60006020820190508181036000830152611c1a81611bde565b9050919050565b7f4e487b7100000000000000000000000000000000000000000000000000000000600052601160045260246000fd5b6000611c5b8261112c565b91507fffffffffffffffffffffffffffffffffffffffffffffffffffffffffffffffff8203611c8d57611c8c611c21565b5b600182019050919050565b7f44656a6120616a6f757465650000000000000000000000000000000000000000600082015250565b6000611cce600c8361169e565b9150611cd982611c98565b602082019050919050565b60006020820190508181036000830152611cfd81611cc1565b9050919050565b6000611d0f8261112c565b9150611d1a8361112c565b9250828202611d288161112c565b91508282048414831517611d3f57611d3e611c21565b5b5092915050565b6000611d518261112c565b9150611d5c8361112c565b9250828201905080821115611d7457611d73611c21565b5b92915050565b7f426c6f632064656a6120617070726f7576650000000000000000000000000000600082015250565b6000611db060128361169e565b9150611dbb82611d7a565b602082019050919050565b60006020820190508181036000830152611ddf81611da3565b9050919050565b60006060820190508181036000830152611e0081866116d9565b90508181036020830152611e1481856116d9565b90508181036040830152611e2881846116d9565b905094935050505056fea2646970667358221220180111707ecf22070f98efff7e97a7fd49afc1a1b585ae57acf0a9d65036285164736f6c63430008130033",
  "immutableReferences": {},
  "source": "// SPDX-License-Identifier: MIT\r\npragma solidity ^0.8.19;\r\n\r\ncontract MedicalConsensus {\r\n    uint public quorumTechnique = 2;\r\n    address public owner;\r\n\r\n    constructor() {\r\n        owner = msg.sender;\r\n    }\r\n\r\n    struct BlocValidation {\r\n        uint blocId;\r\n        address[] validateurs;\r\n        bool approuve;\r\n    }\r\n\r\n    struct AccesAutorise {\r\n        address professionnel;\r\n        uint expiration;\r\n    }\r\n\r\n    struct Paiement {\r\n        address patient;\r\n        bool paye;\r\n    }\r\n\r\n    mapping(uint => BlocValidation) public validations;\r\n    mapping(address => AccesAutorise) public accesTemporaire;\r\n    mapping(uint => Paiement) public paiements;\r\n    mapping(uint => bool) public donneesValideFHIR;\r\n    mapping(uint => string) public hashConsultations;\r\n\r\n\r\n    event BlocValide(uint blocId);\r\n    event AccesAutoriseEvent(address indexed patient, address indexed professionnel);\r\n    event PaiementValide(uint idConsultation);\r\n    event FormatFHIRValide(uint idConsultation);\r\n\r\n    // Nouveaux vnements pour audit\r\n    event ConsultationModifiee(uint indexed idConsultation, string ancienHash, string nouveauHash, string motif);\r\n    event ConsultationSupprimee(uint indexed idConsultation, string raison);\r\n    event ConsultationAjoutee(uint idConsultation, string hashConsultation);\r\n\r\n\r\n    function voteTechnique(uint blocId) public {\r\n        BlocValidation storage v = validations[blocId];\r\n        require(!v.approuve, \"Bloc deja approuve\");\r\n\r\n        for (uint i = 0; i < v.validateurs.length; i++) {\r\n            require(v.validateurs[i] != msg.sender, \"Deja vote\");\r\n        }\r\n\r\n        v.validateurs.push(msg.sender);\r\n\r\n        if (v.validateurs.length >= quorumTechnique) {\r\n            v.approuve = true;\r\n            emit BlocValide(blocId);\r\n        }\r\n    }\r\n\r\n    function autoriserAcces(address professionnel, uint dureeMinutes) public {\r\n        accesTemporaire[msg.sender] = AccesAutorise(professionnel, block.timestamp + dureeMinutes * 1 minutes);\r\n        emit AccesAutoriseEvent(msg.sender, professionnel);\r\n    }\r\n\r\n    function verifierAcces(address patient, address professionnel) public view returns (bool) {\r\n        AccesAutorise memory a = accesTemporaire[patient];\r\n        return (a.professionnel == professionnel && block.timestamp <= a.expiration);\r\n    }\r\n\r\n    function marquerPaiement(uint idConsultation) public {\r\n        paiements[idConsultation] = Paiement(msg.sender, true);\r\n        emit PaiementValide(idConsultation);\r\n    }\r\n\r\n    function estPaiementValide(uint idConsultation) public view returns (bool) {\r\n        return paiements[idConsultation].paye;\r\n    }\r\n\r\n    function validerFormatFHIR(uint idConsultation, bool estValide) public {\r\n        donneesValideFHIR[idConsultation] = estValide;\r\n        if (estValide) {\r\n            emit FormatFHIRValide(idConsultation);\r\n        }\r\n    }\r\n\r\n    function estDonneeFHIRValide(uint idConsultation) public view returns (bool) {\r\n        return donneesValideFHIR[idConsultation];\r\n    }\r\n\r\n    // === vnement pour modification ===\r\n    function enregistrerModification(uint idConsultation, string memory ancienHash, string memory nouveauHash, string memory motif) public {\r\n        emit ConsultationModifiee(idConsultation, ancienHash, nouveauHash, motif);\r\n    }\r\n\r\n    // === vnement pour suppression ===\r\n    function enregistrerSuppression(uint idConsultation, string memory raison) public {\r\n        emit ConsultationSupprimee(idConsultation, raison);\r\n    }\r\n\r\n    function ajouterConsultation(uint idConsultation, string memory hashConsultation) public {\r\n        require(bytes(hashConsultations[idConsultation]).length == 0, \"Deja ajoutee\");\r\n        hashConsultations[idConsultation] = hashConsultation;\r\n        emit ConsultationAjoutee(idConsultation, hashConsultation); // visible dans Ganache\r\n    }\r\n\r\n    function traiterConsultationComplete(\r\n        uint idConsultation,\r\n        string memory hashConsultation,\r\n        address patient,\r\n        address professionnel,\r\n        uint blocId\r\n    ) public {\r\n        // 1. Vrifie que le professionnel est autoris\r\n        AccesAutorise memory a = accesTemporaire[patient];\r\n        require(a.professionnel == professionnel && block.timestamp <= a.expiration, \"Acces non autorise\");\r\n    \r\n        // 2. Marque le paiement comme valide\r\n        paiements[idConsultation] = Paiement(msg.sender, true);\r\n        emit PaiementValide(idConsultation);\r\n    \r\n        // 3. Enregistre la consultation (si pas encore faite)\r\n        require(bytes(hashConsultations[idConsultation]).length == 0, \"Consultation deja ajoutee\");\r\n        hashConsultations[idConsultation] = hashConsultation;\r\n        emit ConsultationAjoutee(idConsultation, hashConsultation);\r\n    \r\n        // 4. Vote pour valider techniquement le bloc\r\n        BlocValidation storage v = validations[blocId];\r\n        for (uint i = 0; i < v.validateurs.length; i++) {\r\n            require(v.validateurs[i] != msg.sender, \"Deja vote\");\r\n        }\r\n        v.validateurs.push(msg.sender);\r\n    \r\n        if (v.validateurs.length >= quorumTechnique) {\r\n            v.approuve = true;\r\n            emit BlocValide(blocId);\r\n        }\r\n    }\r\n    \r\n\r\n}\r\n",
  "sourcePath": "C:\\Users\\ADMIN\\Documents\\projet-reactjs\\Projet-soutenance-FullStack\\backend-nodejs\\thruffle-consansus\\contracts\\MedicalConsensus.sol",
  "compiler": {
    "name": "solc",
    "version": "0.8.19+commit.7dd6d404.Emscripten.clang"
  },
  "schemaVersion": "3.4.16",
  "updatedAt": "2025-07-06T19:39:32.080Z",
  "networkType": "ethereum",
  "devdoc": {
    "kind": "dev",
    "methods": {},
    "version": 1
  },
  "userdoc": {
    "kind": "user",
    "methods": {},
    "version": 1
  }
}